{
  "contractName": "EthPool",
  "abi": [
    {
      "anonymous": false,
      "inputs": [
        {
          "indexed": false,
          "internalType": "uint256",
          "name": "amount",
          "type": "uint256"
        }
      ],
      "name": "DepositRewards",
      "type": "event"
    },
    {
      "anonymous": false,
      "inputs": [
        {
          "indexed": true,
          "internalType": "address",
          "name": "previousOwner",
          "type": "address"
        },
        {
          "indexed": true,
          "internalType": "address",
          "name": "newOwner",
          "type": "address"
        }
      ],
      "name": "OwnershipTransferred",
      "type": "event"
    },
    {
      "anonymous": false,
      "inputs": [
        {
          "indexed": true,
          "internalType": "address payable",
          "name": "staker",
          "type": "address"
        },
        {
          "indexed": false,
          "internalType": "uint256",
          "name": "amount",
          "type": "uint256"
        }
      ],
      "name": "Stake",
      "type": "event"
    },
    {
      "anonymous": false,
      "inputs": [
        {
          "indexed": true,
          "internalType": "address",
          "name": "unstaker",
          "type": "address"
        },
        {
          "indexed": false,
          "internalType": "uint256",
          "name": "amount",
          "type": "uint256"
        },
        {
          "indexed": false,
          "internalType": "uint256",
          "name": "rewardsAmount",
          "type": "uint256"
        }
      ],
      "name": "WithdrawStakeAndRewards",
      "type": "event"
    },
    {
      "inputs": [
        {
          "internalType": "address",
          "name": "",
          "type": "address"
        }
      ],
      "name": "balances",
      "outputs": [
        {
          "internalType": "uint256",
          "name": "",
          "type": "uint256"
        }
      ],
      "stateMutability": "view",
      "type": "function"
    },
    {
      "inputs": [],
      "name": "decimalFactor",
      "outputs": [
        {
          "internalType": "uint256",
          "name": "",
          "type": "uint256"
        }
      ],
      "stateMutability": "view",
      "type": "function"
    },
    {
      "inputs": [
        {
          "internalType": "address",
          "name": "",
          "type": "address"
        }
      ],
      "name": "discountRewardsForBalances",
      "outputs": [
        {
          "internalType": "uint256",
          "name": "",
          "type": "uint256"
        }
      ],
      "stateMutability": "view",
      "type": "function"
    },
    {
      "inputs": [],
      "name": "owner",
      "outputs": [
        {
          "internalType": "address",
          "name": "",
          "type": "address"
        }
      ],
      "stateMutability": "view",
      "type": "function"
    },
    {
      "inputs": [],
      "name": "renounceOwnership",
      "outputs": [],
      "stateMutability": "nonpayable",
      "type": "function"
    },
    {
      "inputs": [],
      "name": "rewardPerToken",
      "outputs": [
        {
          "internalType": "uint256",
          "name": "",
          "type": "uint256"
        }
      ],
      "stateMutability": "view",
      "type": "function"
    },
    {
      "inputs": [],
      "name": "totalStaked",
      "outputs": [
        {
          "internalType": "uint256",
          "name": "",
          "type": "uint256"
        }
      ],
      "stateMutability": "view",
      "type": "function"
    },
    {
      "inputs": [
        {
          "internalType": "address",
          "name": "newOwner",
          "type": "address"
        }
      ],
      "name": "transferOwnership",
      "outputs": [],
      "stateMutability": "nonpayable",
      "type": "function"
    },
    {
      "inputs": [],
      "name": "stake",
      "outputs": [],
      "stateMutability": "payable",
      "type": "function"
    },
    {
      "inputs": [],
      "name": "depositRewards",
      "outputs": [],
      "stateMutability": "payable",
      "type": "function"
    },
    {
      "inputs": [],
      "name": "withdrawStakeAndRewards",
      "outputs": [],
      "stateMutability": "nonpayable",
      "type": "function"
    }
  ],
  "bytecode": "0x6080604052670de0b6b3a764000060055534801561001c57600080fd5b5061003961002e61003e60201b60201c565b61004660201b60201c565b61010a565b600033905090565b60008060009054906101000a900473ffffffffffffffffffffffffffffffffffffffff169050816000806101000a81548173ffffffffffffffffffffffffffffffffffffffff021916908373ffffffffffffffffffffffffffffffffffffffff1602179055508173ffffffffffffffffffffffffffffffffffffffff168173ffffffffffffffffffffffffffffffffffffffff167f8be0079c531659141344cd1fd0a4f28419497f9722a3daafe3b4186f6b6457e060405160405180910390a35050565b610f7e806101196000396000f3fe60806040526004361061009c5760003560e01c8063817b1cd211610064578063817b1cd2146101345780638da5cb5b1461015f578063cd3daf9d1461018a578063d9cae600146101b5578063e3c56d16146101cc578063f2fde38b146102095761009c565b8063152111f7146100a157806327e235e3146100ab5780633a4b66f1146100e85780636d6a6a4d146100f2578063715018a61461011d575b600080fd5b6100a9610232565b005b3480156100b757600080fd5b506100d260048036038101906100cd9190610aa9565b61036f565b6040516100df9190610c17565b60405180910390f35b6100f0610387565b005b3480156100fe57600080fd5b50610107610503565b6040516101149190610c17565b60405180910390f35b34801561012957600080fd5b50610132610509565b005b34801561014057600080fd5b50610149610591565b6040516101569190610c17565b60405180910390f35b34801561016b57600080fd5b50610174610597565b6040516101819190610b7c565b60405180910390f35b34801561019657600080fd5b5061019f6105c0565b6040516101ac9190610c17565b60405180910390f35b3480156101c157600080fd5b506101ca6105c6565b005b3480156101d857600080fd5b506101f360048036038101906101ee9190610aa9565b610860565b6040516102009190610c17565b60405180910390f35b34801561021557600080fd5b50610230600480360381019061022b9190610aa9565b610878565b005b61023a610970565b73ffffffffffffffffffffffffffffffffffffffff16610258610597565b73ffffffffffffffffffffffffffffffffffffffff16146102ae576040517f08c379a00000000000000000000000000000000000000000000000000000000081526004016102a590610bf7565b60405180910390fd5b6000600354116102f3576040517f08c379a00000000000000000000000000000000000000000000000000000000081526004016102ea90610bb7565b60405180910390fd5b61033061031f6003546103116005543461097890919063ffffffff16565b61098e90919063ffffffff16565b6004546109a490919063ffffffff16565b6004819055507f754fe3a3c69256b66ca56365fda4bbf3299d7c94038c105ffd43fb4b37f56db6346040516103659190610c17565b60405180910390a1565b60016020528060005260406000206000915090505481565b34600160003373ffffffffffffffffffffffffffffffffffffffff1673ffffffffffffffffffffffffffffffffffffffff16815260200190815260200160002060008282546103d69190610c6c565b925050819055506104576104096005546103fb3460045461097890919063ffffffff16565b61098e90919063ffffffff16565b600260003373ffffffffffffffffffffffffffffffffffffffff1673ffffffffffffffffffffffffffffffffffffffff168152602001908152602001600020546109a490919063ffffffff16565b600260003373ffffffffffffffffffffffffffffffffffffffff1673ffffffffffffffffffffffffffffffffffffffff1681526020019081526020016000208190555034600360008282546104ac9190610c6c565b925050819055503373ffffffffffffffffffffffffffffffffffffffff167febedb8b3c678666e7f36970bc8f57abf6d8fa2e828c0da91ea5b75bf68ed101a346040516104f99190610c17565b60405180910390a2565b60055481565b610511610970565b73ffffffffffffffffffffffffffffffffffffffff1661052f610597565b73ffffffffffffffffffffffffffffffffffffffff1614610585576040517f08c379a000000000000000000000000000000000000000000000000000000000815260040161057c90610bf7565b60405180910390fd5b61058f60006109ba565b565b60035481565b60008060009054906101000a900473ffffffffffffffffffffffffffffffffffffffff16905090565b60045481565b6000600160003373ffffffffffffffffffffffffffffffffffffffff1673ffffffffffffffffffffffffffffffffffffffff1681526020019081526020016000205411610648576040517f08c379a000000000000000000000000000000000000000000000000000000000815260040161063f90610bd7565b60405180910390fd5b6000600160003373ffffffffffffffffffffffffffffffffffffffff1673ffffffffffffffffffffffffffffffffffffffff16815260200190815260200160002054905060006106b76005546106a96004548561097890919063ffffffff16565b61098e90919063ffffffff16565b9050600061070d600260003373ffffffffffffffffffffffffffffffffffffffff1673ffffffffffffffffffffffffffffffffffffffff1681526020019081526020016000205483610a7e90919063ffffffff16565b90506000600160003373ffffffffffffffffffffffffffffffffffffffff1673ffffffffffffffffffffffffffffffffffffffff168152602001908152602001600020819055506000600260003373ffffffffffffffffffffffffffffffffffffffff1673ffffffffffffffffffffffffffffffffffffffff1681526020019081526020016000208190555082600360008282546107ab9190610d4d565b925050819055503373ffffffffffffffffffffffffffffffffffffffff166108fc6107df83866109a490919063ffffffff16565b9081150290604051600060405180830381858888f1935050505015801561080a573d6000803e3d6000fd5b503373ffffffffffffffffffffffffffffffffffffffff167f7d82694fef96425978c1d918015a467fe5bc763515f1453cc6e9c6742f28e8ff8483604051610853929190610c32565b60405180910390a2505050565b60026020528060005260406000206000915090505481565b610880610970565b73ffffffffffffffffffffffffffffffffffffffff1661089e610597565b73ffffffffffffffffffffffffffffffffffffffff16146108f4576040517f08c379a00000000000000000000000000000000000000000000000000000000081526004016108eb90610bf7565b60405180910390fd5b600073ffffffffffffffffffffffffffffffffffffffff168173ffffffffffffffffffffffffffffffffffffffff161415610964576040517f08c379a000000000000000000000000000000000000000000000000000000000815260040161095b90610b97565b60405180910390fd5b61096d816109ba565b50565b600033905090565b600081836109869190610cf3565b905092915050565b6000818361099c9190610cc2565b905092915050565b600081836109b29190610c6c565b905092915050565b60008060009054906101000a900473ffffffffffffffffffffffffffffffffffffffff169050816000806101000a81548173ffffffffffffffffffffffffffffffffffffffff021916908373ffffffffffffffffffffffffffffffffffffffff1602179055508173ffffffffffffffffffffffffffffffffffffffff168173ffffffffffffffffffffffffffffffffffffffff167f8be0079c531659141344cd1fd0a4f28419497f9722a3daafe3b4186f6b6457e060405160405180910390a35050565b60008183610a8c9190610d4d565b905092915050565b600081359050610aa381610f31565b92915050565b600060208284031215610abb57600080fd5b6000610ac984828501610a94565b91505092915050565b610adb81610d81565b82525050565b6000610aee602683610c5b565b9150610af982610e1b565b604082019050919050565b6000610b11602883610c5b565b9150610b1c82610e6a565b604082019050919050565b6000610b34602f83610c5b565b9150610b3f82610eb9565b604082019050919050565b6000610b57602083610c5b565b9150610b6282610f08565b602082019050919050565b610b7681610db3565b82525050565b6000602082019050610b916000830184610ad2565b92915050565b60006020820190508181036000830152610bb081610ae1565b9050919050565b60006020820190508181036000830152610bd081610b04565b9050919050565b60006020820190508181036000830152610bf081610b27565b9050919050565b60006020820190508181036000830152610c1081610b4a565b9050919050565b6000602082019050610c2c6000830184610b6d565b92915050565b6000604082019050610c476000830185610b6d565b610c546020830184610b6d565b9392505050565b600082825260208201905092915050565b6000610c7782610db3565b9150610c8283610db3565b9250827fffffffffffffffffffffffffffffffffffffffffffffffffffffffffffffffff03821115610cb757610cb6610dbd565b5b828201905092915050565b6000610ccd82610db3565b9150610cd883610db3565b925082610ce857610ce7610dec565b5b828204905092915050565b6000610cfe82610db3565b9150610d0983610db3565b9250817fffffffffffffffffffffffffffffffffffffffffffffffffffffffffffffffff0483118215151615610d4257610d41610dbd565b5b828202905092915050565b6000610d5882610db3565b9150610d6383610db3565b925082821015610d7657610d75610dbd565b5b828203905092915050565b6000610d8c82610d93565b9050919050565b600073ffffffffffffffffffffffffffffffffffffffff82169050919050565b6000819050919050565b7f4e487b7100000000000000000000000000000000000000000000000000000000600052601160045260246000fd5b7f4e487b7100000000000000000000000000000000000000000000000000000000600052601260045260246000fd5b7f4f776e61626c653a206e6577206f776e657220697320746865207a65726f206160008201527f6464726573730000000000000000000000000000000000000000000000000000602082015250565b7f546f74616c207374616b65642073686f756c642062652067726561746572207460008201527f68616e207a65726f000000000000000000000000000000000000000000000000602082015250565b7f42616c616e6365206f6620756e7374616b65722073686f756c6420626520677260008201527f6561746572207468616e207a65726f0000000000000000000000000000000000602082015250565b7f4f776e61626c653a2063616c6c6572206973206e6f7420746865206f776e6572600082015250565b610f3a81610d81565b8114610f4557600080fd5b5056fea2646970667358221220dd182145cfbc65e3f9aea65da4162036201a66028f221bec48f5ae6dcdf00e7664736f6c63430008040033",
  "immutableReferences": {},
  "source": "// SPDX-License-Identifier: Unlicensed\r\npragma solidity ^0.8.4;\r\n\r\nimport \"@openzeppelin/contracts/access/Ownable.sol\";\r\nimport \"@openzeppelin/contracts/utils/math/SafeMath.sol\";\r\n\r\n/**\r\n * @notice EthPool exposes functions to stake Eth and receive rewards based on the time and share of staked amount.\r\n */\r\ncontract EthPool is Ownable {\r\n  using SafeMath for uint256;\r\n\r\n  mapping(address => uint256) public balances;\r\n  mapping(address => uint256) public discountRewardsForBalances;\r\n  uint256 public totalStaked;\r\n  uint256 public rewardPerToken;\r\n  uint256 public decimalFactor = 10**18;\r\n  \r\n  event Stake(address payable indexed staker, uint256 amount);\r\n  event WithdrawStakeAndRewards(address indexed unstaker, uint256 amount, uint256 rewardsAmount);\r\n  event DepositRewards(uint256 amount);\r\n  \r\n  function stake() external payable {\r\n    balances[msg.sender] += msg.value;\r\n    discountRewardsForBalances[msg.sender] = discountRewardsForBalances[msg.sender].add(rewardPerToken.mul(msg.value).div(decimalFactor));\r\n    totalStaked += msg.value;\r\n\r\n    emit Stake(payable(msg.sender), msg.value);\r\n  }\r\n\r\n  function depositRewards() external payable onlyOwner() {\r\n    require(totalStaked > 0, 'Total staked should be greater than zero');\r\n    rewardPerToken = rewardPerToken.add(msg.value.mul(decimalFactor).div(totalStaked));\r\n\r\n    emit DepositRewards(msg.value);\r\n  }\r\n\r\n  function withdrawStakeAndRewards() external {\r\n    require(balances[msg.sender] > 0, 'Balance of unstaker should be greater than zero');\r\n\r\n    uint256 _unstakerBalance = balances[msg.sender];\r\n    uint256 _rewardAmount = _unstakerBalance.mul(rewardPerToken).div(decimalFactor);\r\n    uint256 _finalRewards = _rewardAmount.sub(discountRewardsForBalances[msg.sender]);\r\n\r\n    balances[msg.sender] = 0;\r\n    discountRewardsForBalances[msg.sender] = 0;\r\n    totalStaked -= _unstakerBalance;\r\n    payable(msg.sender).transfer(_unstakerBalance.add(_finalRewards));\r\n\r\n    emit WithdrawStakeAndRewards(msg.sender, _unstakerBalance, _finalRewards);\r\n  }\r\n\r\n}",
  "sourcePath": "C:\\Users\\santi\\Documents\\NetBeansProjects\\exactly-exercise\\contracts\\EthPool.sol",
  "compiler": {
    "name": "solc",
    "version": "0.8.4+commit.c7e474f2.Emscripten.clang"
  },
  "schemaVersion": "3.4.3",
  "updatedAt": "2021-08-30T02:41:01.188Z",
  "devdoc": {
    "kind": "dev",
    "methods": {
      "owner()": {
        "details": "Returns the address of the current owner."
      },
      "renounceOwnership()": {
        "details": "Leaves the contract without owner. It will not be possible to call `onlyOwner` functions anymore. Can only be called by the current owner. NOTE: Renouncing ownership will leave the contract without an owner, thereby removing any functionality that is only available to the owner."
      },
      "transferOwnership(address)": {
        "details": "Transfers ownership of the contract to a new account (`newOwner`). Can only be called by the current owner."
      }
    },
    "version": 1
  },
  "userdoc": {
    "kind": "user",
    "methods": {},
    "notice": "EthPool exposes functions to stake Eth and receive rewards based on the time and share of staked amount.",
    "version": 1
  }
}